:100000000C9434000C9451000C9451000C94510049
:100010000C9451000C9451000C9451000C9451001C
:100020000C9451000C9451000C9451000C94E80075
:100030000C9451000C9451000C9451000C945100FC
:100040000C9451000C9451000C943A010C94510002
:100050000C9451000C94F2000C9451000C9451003B
:100060000C9451000C94510011241FBECFEFD8E026
:10007000DEBFCDBF11E0A0E0B1E0EEEBF3E002C0E7
:1000800005900D92A430B107D9F721E0A4E0B1E0CA
:1000900001C01D92AF30B207E1F70E9487010C94B6
:1000A000DD010C9400009093C5008093C40088E9A2
:1000B0008093C100089583E884BD82E085BD17BCAC
:1000C0009AE09093810092E49093890010928800C6
:1000D00080936F00089581E280937C0083EA80938F
:1000E0007A0086E080937B000895FB01208130E850
:1000F0002303C001112490930C0180930B018F3FC7
:1001000091053CF08FEF90E090930C0180930B01F0
:1001100006C0992324F410920C0110920B01208147
:100120008091090190910A01820F911D27FD9A95F6
:100130008F3F91053CF08FEF90E090930A01809300
:1001400009010BC099232CF090930A0180930901B7
:1001500004C010920A01109209018181082E000C3E
:10016000990B2081821B910927FD939548E2489FB6
:100170009001499F300D112430930E0120930D0101
:1001800040910B0150910C018091090190910A015D
:10019000840F951F009729F410920E0110920D0103
:1001A0000895820F931F8F3F910508F08FEF0895F8
:1001B0008D3B38F429E6829FC00111248FEE890F10
:1001C000089521EE829FC001112486E9890F0895C8
:1001D0001F920F920FB60F9211240F900FBE0F9027
:1001E0001F9018951F920F920FB60F9211240F9027
:1001F0000FBE0F901F901895E0ECF0E0908195FFF6
:10020000FDCF8093C6000895CF93DF93C82F843627
:1002100088F08CE98C0F843638F088E38C0F8436B4
:1002200030F0CC5283E007C0C82F81E004C0C82F53
:1002300082E001C080E0CA3048F0D1E001C0D92F8F
:10024000CA5091E09D0FCA30D0F701C0D0E0CC2356
:1002500019F09C2F9150F1F7805D0E94FC0080E323
:100260008D0F0E94FC0080E38C0F0E94FC00DF9148
:10027000CF9108951F920F920FB60F9211248F9372
:100280009F93EF93FF939091C60080910401E82F14
:10029000F0E0EB5FFE4F9083843018F48F5F809323
:1002A00004019D3011F580910401833079F4E5E07B
:1002B000F1E08081880F805E982F990F990F890F48
:1002C00091819057890F8093000107C0823029F4F3
:1002D00080910501805780930001E5E0F1E01082F4
:1002E000118212821092040109C0983039F4E5E0BD
:1002F000F1E010821182128210920401FF91EF91BD
:100300009F918F910F900FBE0F901F901895CF93D4
:10031000DF9300D0CDB7DEB78FEF84B980EF87B918
:100320008AB985E090E00E9453000E945B000E9421
:100330006B0019821A820F2EFAE7EF2EF12CF02DA6
:1003400001E00F2EF9E7CF2ED12CF02DF70180819F
:1003500080648083789403BF8895F60180810E9431
:10036000D800182F80910001F12FF81BF983BE01EE
:100370006F5F7F4F812F0E94750087BD84E50E94CB
:10038000FC008AE30E94FC00812F0E94040189E0A6
:100390000E94FC0082E50E94FC008AE30E94FC00AF
:1003A000809100010E94040189818A838DE00E946E
:0E03B000FC008AE00E94FC00C9CFF894FFCF49
:0403BE001E28018074
:00000001FF
